{
  "contractName": "MedicalRecordsRegistry",
  "abi": [
    {
      "inputs": [],
      "stateMutability": "nonpayable",
      "type": "constructor"
    },
    {
      "anonymous": false,
      "inputs": [
        {
          "indexed": true,
          "internalType": "bytes32",
          "name": "documentHash",
          "type": "bytes32"
        },
        {
          "indexed": true,
          "internalType": "address",
          "name": "doctor",
          "type": "address"
        },
        {
          "indexed": false,
          "internalType": "uint256",
          "name": "timestamp",
          "type": "uint256"
        },
        {
          "indexed": false,
          "internalType": "bytes",
          "name": "signature",
          "type": "bytes"
        }
      ],
      "name": "RecordRegistered",
      "type": "event"
    },
    {
      "inputs": [
        {
          "internalType": "address",
          "name": "doctor",
          "type": "address"
        }
      ],
      "name": "authorizeDoctor",
      "outputs": [],
      "stateMutability": "nonpayable",
      "type": "function"
    },
    {
      "inputs": [
        {
          "internalType": "bytes32",
          "name": "documentHash",
          "type": "bytes32"
        },
        {
          "internalType": "bytes",
          "name": "signature",
          "type": "bytes"
        }
      ],
      "name": "recoverSigner",
      "outputs": [
        {
          "internalType": "address",
          "name": "",
          "type": "address"
        }
      ],
      "stateMutability": "pure",
      "type": "function",
      "constant": true
    },
    {
      "inputs": [
        {
          "internalType": "bytes32",
          "name": "_documentHash",
          "type": "bytes32"
        },
        {
          "internalType": "bytes",
          "name": "_signature",
          "type": "bytes"
        }
      ],
      "name": "registerRecord",
      "outputs": [],
      "stateMutability": "nonpayable",
      "type": "function"
    },
    {
      "inputs": [
        {
          "internalType": "bytes32",
          "name": "_documentHash",
          "type": "bytes32"
        }
      ],
      "name": "getRecord",
      "outputs": [
        {
          "internalType": "address",
          "name": "doctor",
          "type": "address"
        },
        {
          "internalType": "uint256",
          "name": "timestamp",
          "type": "uint256"
        },
        {
          "internalType": "bytes",
          "name": "signature",
          "type": "bytes"
        },
        {
          "internalType": "bool",
          "name": "isValid",
          "type": "bool"
        }
      ],
      "stateMutability": "view",
      "type": "function",
      "constant": true
    },
    {
      "inputs": [
        {
          "internalType": "address",
          "name": "doctor",
          "type": "address"
        }
      ],
      "name": "isDoctorAuthorized",
      "outputs": [
        {
          "internalType": "bool",
          "name": "",
          "type": "bool"
        }
      ],
      "stateMutability": "view",
      "type": "function",
      "constant": true
    },
    {
      "inputs": [
        {
          "internalType": "bytes32",
          "name": "_documentHash",
          "type": "bytes32"
        }
      ],
      "name": "verifySignature",
      "outputs": [
        {
          "internalType": "bool",
          "name": "isValid",
          "type": "bool"
        }
      ],
      "stateMutability": "view",
      "type": "function",
      "constant": true
    }
  ],
  "bytecode": "0x608060405234801561000f575f80fd5b506001805f3373ffffffffffffffffffffffffffffffffffffffff1673ffffffffffffffffffffffffffffffffffffffff1681526020019081526020015f205f6101000a81548160ff02191690831515021790555061143d806100715f395ff3fe608060405234801561000f575f80fd5b506004361061005f575f3560e01c8062e469ef14610063578063213681cd1461009357806358c9202c146100c657806397aba7f9146100e2578063a7ef318214610112578063ec6a6e8c1461012e575b5f80fd5b61007d60048036038101906100789190610a14565b61015e565b60405161008a9190610a59565b60405180910390f35b6100ad60048036038101906100a89190610a14565b610341565b6040516100bd9493929190610b53565b60405180910390f35b6100e060048036038101906100db9190610bc7565b61049a565b005b6100fc60048036038101906100f79190610d1e565b61057a565b6040516101099190610d78565b60405180910390f35b61012c60048036038101906101279190610d1e565b61060f565b005b61014860048036038101906101439190610bc7565b6108a9565b6040516101559190610a59565b60405180910390f35b5f805f808481526020019081526020015f206040518060a00160405290815f8201548152602001600182015f9054906101000a900473ffffffffffffffffffffffffffffffffffffffff1673ffffffffffffffffffffffffffffffffffffffff1673ffffffffffffffffffffffffffffffffffffffff168152602001600282015481526020016003820180546101f390610dbe565b80601f016020809104026020016040519081016040528092919081815260200182805461021f90610dbe565b801561026a5780601f106102415761010080835404028352916020019161026a565b820191905f5260205f20905b81548152906001019060200180831161024d57829003601f168201915b50505050508152602001600482015f9054906101000a900460ff161515151581525050905080608001516102a1575f91505061033c565b5f6102b084836060015161057a565b9050816020015173ffffffffffffffffffffffffffffffffffffffff168173ffffffffffffffffffffffffffffffffffffffff16148015610337575060015f8273ffffffffffffffffffffffffffffffffffffffff1673ffffffffffffffffffffffffffffffffffffffff1681526020019081526020015f205f9054906101000a900460ff165b925050505b919050565b5f8060605f805f808781526020019081526020015f206040518060a00160405290815f8201548152602001600182015f9054906101000a900473ffffffffffffffffffffffffffffffffffffffff1673ffffffffffffffffffffffffffffffffffffffff1673ffffffffffffffffffffffffffffffffffffffff168152602001600282015481526020016003820180546103da90610dbe565b80601f016020809104026020016040519081016040528092919081815260200182805461040690610dbe565b80156104515780601f1061042857610100808354040283529160200191610451565b820191905f5260205f20905b81548152906001019060200180831161043457829003601f168201915b50505050508152602001600482015f9054906101000a900460ff161515151581525050905080602001518160400151826060015183608001519450945094509450509193509193565b60015f3373ffffffffffffffffffffffffffffffffffffffff1673ffffffffffffffffffffffffffffffffffffffff1681526020019081526020015f205f9054906101000a900460ff16610523576040517f08c379a000000000000000000000000000000000000000000000000000000000815260040161051a90610e48565b60405180910390fd5b6001805f8373ffffffffffffffffffffffffffffffffffffffff1673ffffffffffffffffffffffffffffffffffffffff1681526020019081526020015f205f6101000a81548160ff02191690831515021790555050565b5f808360405160200161058d9190610eda565b6040516020818303038152906040528051906020012090505f805f6105b1866108fb565b9250925092506001848285856040515f81526020016040526040516105d99493929190610f29565b6020604051602081039080840390855afa1580156105f9573d5f803e3d5ffd5b5050506020604051035194505050505092915050565b60015f3373ffffffffffffffffffffffffffffffffffffffff1673ffffffffffffffffffffffffffffffffffffffff1681526020019081526020015f205f9054906101000a900460ff16610698576040517f08c379a000000000000000000000000000000000000000000000000000000000815260040161068f90610e48565b60405180910390fd5b5f808381526020019081526020015f206004015f9054906101000a900460ff16156106f8576040517f08c379a00000000000000000000000000000000000000000000000000000000081526004016106ef90610fb6565b60405180910390fd5b5f610703838361057a565b90503373ffffffffffffffffffffffffffffffffffffffff168173ffffffffffffffffffffffffffffffffffffffff1614610773576040517f08c379a000000000000000000000000000000000000000000000000000000000815260040161076a9061101e565b60405180910390fd5b6040518060a001604052808481526020013373ffffffffffffffffffffffffffffffffffffffff168152602001428152602001838152602001600115158152505f808581526020019081526020015f205f820151815f01556020820151816001015f6101000a81548173ffffffffffffffffffffffffffffffffffffffff021916908373ffffffffffffffffffffffffffffffffffffffff16021790555060408201518160020155606082015181600301908161083091906111d9565b506080820151816004015f6101000a81548160ff0219169083151502179055509050503373ffffffffffffffffffffffffffffffffffffffff16837f4a887dd5b55dbfb42f161b95a2803c63203eb2aceffacf427ba51bc924d3eaa8428560405161089c9291906112a8565b60405180910390a3505050565b5f60015f8373ffffffffffffffffffffffffffffffffffffffff1673ffffffffffffffffffffffffffffffffffffffff1681526020019081526020015f205f9054906101000a900460ff169050919050565b5f805f6041845114610942576040517f08c379a000000000000000000000000000000000000000000000000000000000815260040161093990611320565b60405180910390fd5b602084015192506040840151915060608401515f1a9050601b8160ff16101561097557601b81610972919061136b565b90505b601b8160ff16148061098a5750601c8160ff16145b6109c9576040517f08c379a00000000000000000000000000000000000000000000000000000000081526004016109c0906113e9565b60405180910390fd5b9193909250565b5f604051905090565b5f80fd5b5f80fd5b5f819050919050565b6109f3816109e1565b81146109fd575f80fd5b50565b5f81359050610a0e816109ea565b92915050565b5f60208284031215610a2957610a286109d9565b5b5f610a3684828501610a00565b91505092915050565b5f8115159050919050565b610a5381610a3f565b82525050565b5f602082019050610a6c5f830184610a4a565b92915050565b5f73ffffffffffffffffffffffffffffffffffffffff82169050919050565b5f610a9b82610a72565b9050919050565b610aab81610a91565b82525050565b5f819050919050565b610ac381610ab1565b82525050565b5f81519050919050565b5f82825260208201905092915050565b5f5b83811015610b00578082015181840152602081019050610ae5565b5f8484015250505050565b5f601f19601f8301169050919050565b5f610b2582610ac9565b610b2f8185610ad3565b9350610b3f818560208601610ae3565b610b4881610b0b565b840191505092915050565b5f608082019050610b665f830187610aa2565b610b736020830186610aba565b8181036040830152610b858185610b1b565b9050610b946060830184610a4a565b95945050505050565b610ba681610a91565b8114610bb0575f80fd5b50565b5f81359050610bc181610b9d565b92915050565b5f60208284031215610bdc57610bdb6109d9565b5b5f610be984828501610bb3565b91505092915050565b5f80fd5b5f80fd5b7f4e487b71000000000000000000000000000000000000000000000000000000005f52604160045260245ffd5b610c3082610b0b565b810181811067ffffffffffffffff82111715610c4f57610c4e610bfa565b5b80604052505050565b5f610c616109d0565b9050610c6d8282610c27565b919050565b5f67ffffffffffffffff821115610c8c57610c8b610bfa565b5b610c9582610b0b565b9050602081019050919050565b828183375f83830152505050565b5f610cc2610cbd84610c72565b610c58565b905082815260208101848484011115610cde57610cdd610bf6565b5b610ce9848285610ca2565b509392505050565b5f82601f830112610d0557610d04610bf2565b5b8135610d15848260208601610cb0565b91505092915050565b5f8060408385031215610d3457610d336109d9565b5b5f610d4185828601610a00565b925050602083013567ffffffffffffffff811115610d6257610d616109dd565b5b610d6e85828601610cf1565b9150509250929050565b5f602082019050610d8b5f830184610aa2565b92915050565b7f4e487b71000000000000000000000000000000000000000000000000000000005f52602260045260245ffd5b5f6002820490506001821680610dd557607f821691505b602082108103610de857610de7610d91565b5b50919050565b5f82825260208201905092915050565b7f4e6f7420616e20617574686f72697a656420646f63746f7200000000000000005f82015250565b5f610e32601883610dee565b9150610e3d82610dfe565b602082019050919050565b5f6020820190508181035f830152610e5f81610e26565b9050919050565b5f81905092915050565b7f19457468657265756d205369676e6564204d6573736167653a0a3332000000005f82015250565b5f610ea4601c83610e66565b9150610eaf82610e70565b601c82019050919050565b5f819050919050565b610ed4610ecf826109e1565b610eba565b82525050565b5f610ee482610e98565b9150610ef08284610ec3565b60208201915081905092915050565b610f08816109e1565b82525050565b5f60ff82169050919050565b610f2381610f0e565b82525050565b5f608082019050610f3c5f830187610eff565b610f496020830186610f1a565b610f566040830185610eff565b610f636060830184610eff565b95945050505050565b7f5265636f726420616c72656164792065786973747300000000000000000000005f82015250565b5f610fa0601583610dee565b9150610fab82610f6c565b602082019050919050565b5f6020820190508181035f830152610fcd81610f94565b9050919050565b7f496e76616c6964207369676e61747572650000000000000000000000000000005f82015250565b5f611008601183610dee565b915061101382610fd4565b602082019050919050565b5f6020820190508181035f83015261103581610ffc565b9050919050565b5f819050815f5260205f209050919050565b5f6020601f8301049050919050565b5f82821b905092915050565b5f600883026110987fffffffffffffffffffffffffffffffffffffffffffffffffffffffffffffffff8261105d565b6110a2868361105d565b95508019841693508086168417925050509392505050565b5f819050919050565b5f6110dd6110d86110d384610ab1565b6110ba565b610ab1565b9050919050565b5f819050919050565b6110f6836110c3565b61110a611102826110e4565b848454611069565b825550505050565b5f90565b61111e611112565b6111298184846110ed565b505050565b5b8181101561114c576111415f82611116565b60018101905061112f565b5050565b601f821115611191576111628161103c565b61116b8461104e565b8101602085101561117a578190505b61118e6111868561104e565b83018261112e565b50505b505050565b5f82821c905092915050565b5f6111b15f1984600802611196565b1980831691505092915050565b5f6111c983836111a2565b9150826002028217905092915050565b6111e282610ac9565b67ffffffffffffffff8111156111fb576111fa610bfa565b5b6112058254610dbe565b611210828285611150565b5f60209050601f831160018114611241575f841561122f578287015190505b61123985826111be565b8655506112a0565b601f19841661124f8661103c565b5f5b8281101561127657848901518255600182019150602085019450602081019050611251565b86831015611293578489015161128f601f8916826111a2565b8355505b6001600288020188555050505b505050505050565b5f6040820190506112bb5f830185610aba565b81810360208301526112cd8184610b1b565b90509392505050565b7f496e76616c6964207369676e6174757265206c656e67746800000000000000005f82015250565b5f61130a601883610dee565b9150611315826112d6565b602082019050919050565b5f6020820190508181035f830152611337816112fe565b9050919050565b7f4e487b71000000000000000000000000000000000000000000000000000000005f52601160045260245ffd5b5f61137582610f0e565b915061138083610f0e565b9250828201905060ff8111156113995761139861133e565b5b92915050565b7f496e76616c6964207369676e617475726520762076616c7565000000000000005f82015250565b5f6113d3601983610dee565b91506113de8261139f565b602082019050919050565b5f6020820190508181035f830152611400816113c7565b905091905056fea26469706673582212200cde269cfcca7dd352ab95a8457a9bbed268567f1986f41e6e8312fd4c3dc57b64736f6c63430008150033",
  "immutableReferences": {},
  "source": "// SPDX-License-Identifier: MIT\r\npragma solidity ^0.8.19;\r\n\r\ncontract MedicalRecordsRegistry {\r\n\r\n    struct MedicalRecord {\r\n        bytes32 documentHash;\r\n        address doctor;\r\n        uint256 timestamp;\r\n        bytes signature;\r\n        bool isValid;\r\n    }\r\n    \r\n    mapping(bytes32 => MedicalRecord) private records;\r\n    mapping(address => bool) private authorizedDoctors;\r\n    \r\n    event RecordRegistered(\r\n        bytes32 indexed documentHash,\r\n        address indexed doctor,\r\n        uint256 timestamp,\r\n        bytes signature\r\n    );\r\n    \r\n    constructor() {\r\n        authorizedDoctors[msg.sender] = true; // El deployer es el primer doctor autorizado\r\n    }\r\n    \r\n    modifier onlyAuthorizedDoctor() {\r\n        require(authorizedDoctors[msg.sender], \"Not an authorized doctor\");\r\n        _;\r\n    }\r\n    \r\n    function authorizeDoctor(address doctor) public onlyAuthorizedDoctor {\r\n        authorizedDoctors[doctor] = true;\r\n    }\r\n\r\n    // Funcin auxiliar para recuperar la direccin del firmante\r\n    function recoverSigner(bytes32 documentHash, bytes memory signature) \r\n        public \r\n        pure \r\n        returns (address)\r\n    {\r\n        bytes32 messageHash = keccak256(abi.encodePacked(\"\\x19Ethereum Signed Message:\\n32\", documentHash));\r\n        (bytes32 r, bytes32 s, uint8 v) = splitSignature(signature);\r\n        return ecrecover(messageHash, v, r, s);\r\n    }\r\n\r\n    // Funcin auxiliar para dividir la firma en sus componentes\r\n    function splitSignature(bytes memory sig)\r\n        internal\r\n        pure\r\n        returns (bytes32 r, bytes32 s, uint8 v)\r\n    {\r\n        require(sig.length == 65, \"Invalid signature length\");\r\n\r\n        assembly {\r\n            r := mload(add(sig, 32))\r\n            s := mload(add(sig, 64))\r\n            v := byte(0, mload(add(sig, 96)))\r\n        }\r\n\r\n        // Ajuste de la versin para compatibilidad con la firma de ethereum\r\n        if (v < 27) {\r\n            v += 27;\r\n        }\r\n\r\n        require(v == 27 || v == 28, \"Invalid signature v value\");\r\n        return (r, s, v);\r\n    }\r\n\r\n    function registerRecord(bytes32 _documentHash, bytes memory _signature) \r\n        public \r\n        onlyAuthorizedDoctor \r\n    {\r\n        require(!records[_documentHash].isValid, \"Record already exists\");\r\n        \r\n        // Verificar que la firma corresponde al doctor\r\n        address signer = recoverSigner(_documentHash, _signature);\r\n        require(signer == msg.sender, \"Invalid signature\");\r\n        \r\n        records[_documentHash] = MedicalRecord({\r\n            documentHash: _documentHash,\r\n            doctor: msg.sender,\r\n            timestamp: block.timestamp,\r\n            signature: _signature,\r\n            isValid: true\r\n        });\r\n        \r\n        emit RecordRegistered(\r\n            _documentHash,\r\n            msg.sender,\r\n            block.timestamp,\r\n            _signature\r\n        );\r\n    }\r\n    \r\n    function getRecord(bytes32 _documentHash) \r\n        public \r\n        view \r\n        returns (\r\n            address doctor,\r\n            uint256 timestamp,\r\n            bytes memory signature,\r\n            bool isValid\r\n        ) \r\n    {\r\n        MedicalRecord memory record = records[_documentHash];\r\n        return (\r\n            record.doctor,\r\n            record.timestamp,\r\n            record.signature,\r\n            record.isValid\r\n        );\r\n    }\r\n    \r\n    function isDoctorAuthorized(address doctor) public view returns (bool) {\r\n        return authorizedDoctors[doctor];\r\n    }\r\n\r\n    function verifySignature(bytes32 _documentHash)\r\n        public\r\n        view\r\n        returns (bool isValid)\r\n    {\r\n        MedicalRecord memory record = records[_documentHash];\r\n        if (!record.isValid) {\r\n            return false;\r\n        }\r\n\r\n        address signer = recoverSigner(_documentHash, record.signature);\r\n        return signer == record.doctor && authorizedDoctors[signer];\r\n    }\r\n}\r\n",
  "sourcePath": "C:\\Users\\Hp\\Documents\\sw2\\Parcial2SW2\\medical-blockchain-local\\contracts\\MedicalRecordsRegistry.sol",
  "compiler": {
    "name": "solc",
    "version": "0.8.21+commit.d9974bed.Emscripten.clang"
  },
  "schemaVersion": "3.4.16",
  "updatedAt": "2024-11-12T16:32:04.183Z",
  "networkType": "ethereum",
  "devdoc": {
    "kind": "dev",
    "methods": {},
    "version": 1
  },
  "userdoc": {
    "kind": "user",
    "methods": {},
    "version": 1
  }
}